:100000000C9418040C9449040C9449040C9449046D
:100010000C9449040C9449040C9449040C9449042C
:100020000C9449040C9449040C9449040C9449041C
:100030000C9449040C9449040C9449040C9449040C
:100040000C9449040C9449040C9449040C944904FC
:100050000C9449040C9449040C9449040C94430CEA
:100060000C9449040C943C100C9408110C94490411
:100070000C9449040C9449040C9449040C944904CC
:100080000C9449040C9449040C9449040C944904BC
:100090000C946F100C9447110C9449040C9449046F
:1000A0000C9449040C9449040C9449040C9449049C
:1000B0000C9449040C9449040C9449040C9449048C
:1000C0000C9449040C9449040C9449040C94A21017
:1000D0000C9486110C9449040C94D5100C94C51101
:1000E0000C944904820D850D780D7C0DBC0D890D95
:1000F0008D0D930D970D9B0DA10DA50DA90DBC0D9B
:10010000AF0DB30DB70D0C94520E0C94FD2C0C9446
:1001100015260C9439320C947A2C0C9445300C949E
:100120003E260C947D150C949C150C94C7260C94BB
:100130000E260C940D260C944C160C94A10D0C94C8
:10014000AC270C9418270C9421260C9464250C944D
:10015000BE310C94990F0C94850D0C94890D0C9460
:10016000970D0C94820D0C94B50F0C949B0D0C9470
:100170004B150C94732B0C948D2C0C94B30D0C9488
:10018000B70D0C94372D0C94780D0C947C0D0C94B9
:1001900034150C94E00F0C94A90D0C9461150C947B
:1001A000A50D0C94BC0D0C94752D0C948D0D0C9418
:1001B000880F0C94A6150C945B2C0C9491300C9425
:1001C00036270C94662C0C94D50F0C94890F0C9444
:1001D000BA090C94B21D0C94930D0C9483260C94C4
:1001E000C32C0C948C120C940B280C942D260C947C
:1001F0000C280C943D260C94AF0D0000090A02084F
:100200000B0C0D07060304010000000000000000B5
:1002100000000000000000000000000000000000DE
:1002200000000000000011100F000000000000009E
:1002300000000000000000000000000000000000BE
:1002400001021020200808102040102040800201E8
:1002500002010804020101020408102040808040CD
:1002600020100804020180040201804020100804CC
:10027000020108040201010204081020408001026A
:100280000408102040800505050507050808080832
:10029000020202020A0A080804040404010101011E
:1002A0000101010103030303030303030407070719
:1002B0000C0C0C0C0C0C0C0C0202020206060606BE
:1002C000060606060B0B0B0B0B0B0B0B000020009E
:1002D0002300260029002C002F003200000100001E
:1002E00003010601090100002200250028002B005F
:1002F0002E003100340002010000050108010B014D
:1003000000002100240027002A002D0030003300C7
:1003100001010000040107010A017C3C3E5E2B3D07
:100320003F2F5B5D3B2C2A225C0000000000003E5A
:100330005B4F5B3E3E6B4F6B3E1C3E7C3E1C183C55
:100340007E3C181C577D571C1C5E7F5E1C00183CB1
:100350001800FFE7C3E7FF0018241800FFE7DBE7FA
:10036000FF30483A060E2629792926407F050507E1
:10037000407F05253F5A3CE73C5A7F3E1C1C08083D
:100380001C1C3E7F14227F22145F5F005F5F060902
:100390007F017F006689956A606060606094A2FF5B
:1003A000A29408047E040810207E201008082A1C4D
:1003B00008081C2A08081E101010100C1E0C1E0C19
:1003C00030383E3830060E3E0E06000000000000B9
:1003D000005F00000007000700147F147F14242A28
:1003E0007F2A1223130864623649562050000807FA
:1003F0000300001C2241000041221C002A1C7F1C1B
:100400002A08083E0808008070300008080808081C
:10041000000060600020100804023E5149453E0083
:10042000427F400072494949462141494D331814E1
:10043000127F1027454545393C4A49493141211130
:1004400009073649494936464949291E0000140022
:100450000000403400000008142241141414141445
:10046000004122140802015909063E415D594E7CA3
:100470001211127C7F494949363E414141227F4158
:1004800041413E7F494949417F090909013E4141B6
:1004900051737F0808087F00417F41002040413FA1
:1004A000017F081422417F404040407F021C027FB0
:1004B0007F0408107F3E4141413E7F090909063E05
:1004C0004151215E7F0919294626494949320301D4
:1004D0007F01033F4040403F1F2040201F3F4038E6
:1004E000403F631408146303047804036159494DC1
:1004F00043007F4141410204081020004141417FF7
:10050000040201020440404040400003070800206C
:10051000545478407F28444438384444442838446C
:1005200044287F385454541800087E090218A4A4A3
:100530009C787F0804047800447D40002040403DC2
:10054000007F1028440000417F40007C047804783C
:100550007C080404783844444438FC1824241818CF
:10056000242418FC7C08040408485454542404042B
:100570003F44243C4040207C1C2040201C3C403018
:10058000403C44281028444C9090907C4464544C47
:1005900044000836410000007700000041360800A2
:1005A00002010204023C2623263C1EA1A161123A4C
:1005B0004040207A38545455592155557941225498
:1005C000547842215554784020545579400C1E529D
:1005D0007212395555555939545454593955545442
:1005E000580000457C410002457D420001457C40A9
:1005F0007D1211127DF0282528F07C5455450020ED
:1006000054547C547C0A097F4932494949323A445E
:1006100044443A324A4848303A4141217A3A4240C9
:100620002078009DA0A07D3D4242423D3D4040409B
:100630003D3C24FF2424487E4943662B2FFC2F2B6E
:10064000FF0929F620C0887E09032054547941000F
:1006500000447D413048484A32384040227A007A8E
:100660000A0A727D0D19317D2629292F282629296C
:10067000292630484D40203808080808080808088E
:10068000382F10C8ACBA2F102834FA00007B0000B5
:1006900008142A142222142A14085500550055AAB9
:1006A00055AA55AAFF55FF55FF000000FF00101086
:1006B00010FF00141414FF001010FF00FF1010F0C2
:1006C00010F0141414FC001414F700FF0000FF00D5
:1006D000FF1414F404FC141417101F10101F101F23
:1006E0001414141F00101010F0000000001F101050
:1006F00010101F10101010F010000000FF1010104C
:10070000101010101010FF10000000FF140000FF68
:1007100000FF00001F10170000FC04F41414171051
:10072000171414F404F40000FF00F7141414141444
:100730001414F700F7141414171410101F101F14BA
:100740001414F4141010F010F000001F101F00001B
:10075000001F14000000FC140000F010F01010FF47
:1007600010FF141414FF141010101F00000000F0EC
:1007700010FFFFFFFFFFF0F0F0F0F0FFFFFF0000C1
:10078000000000FFFF0F0F0F0F0F3844443844FCE8
:100790004A4A4A347E02020606027E027E026355FF
:1007A0004941633844443C04407E201E2006027EBA
:1007B000020299A5E7A5991C2A492A1C4C720172CC
:1007C0004C304A4D4D303048784830BC625A463D36
:1007D0003E494949007E0101017E2A2A2A2A2A44EB
:1007E000445F444440514A444040444A5140000020
:1007F000FF0103E080FF000008086B6B083612362B
:100800002436060F090F060000181800000010100B
:10081000003040FF0101001F01011E00191D1712C9
:10082000003C3C3C3C0000000000BA098C1234152E
:1008300011241FBECFEFD1E2DEBFCDBF00E00CBF61
:1008400015E0A0E0B2E0EAE3FAE600E00BBF02C088
:1008500007900D92A831B107D9F72AE1A8E1B5E0D8
:1008600001C01D92A930B207E1F714E0C8E1D4E05D
:1008700000E006C021970109802FFE010E94EA34A2
:10088000C531D10780E00807A9F70E94CA0B0C9474
:100890002F340C9400002F923F924F925F926F92F0
:1008A0007F928F929F92AF92BF92CF92DF92EF9200
:1008B000FF920F931F93CF93DF93CDB7DEB7CA5448
:1008C000D1090FB6F894DEBF0FBECDBF1C014B019E
:1008D0002A0139011EAF0DAF2196FFAEEEAE219772
:1008E0002396BFAEAEAE23970DB71EB725961FAFAA
:1008F0000EAF25978E01045E1F4FC8010E9405169A
:1009000021E0A10163EB77E1CE0101960E94B214D0
:100910008B819C819F8F8E8F8D819E81AF81B885C9
:1009200088A399A3AAA3BBA389859A85AB85BC8517
:100930008CA39DA3AEA3BFA38DE0FE013D96DE0177
:10094000989601900D928A95E1F78A8D9B8D9EABCA
:100950008DABC8010E948D16F82ECE0101960E9423
:100960001816FF20C1F05601AA0CBB1CC301A0E061
:10097000B0E08FAB98AFA9AFBAAFE12CF12CC201B8
:10098000A0E0B0E029968CAF9DAFAEAFBFAF299786
:10099000702E612E2DC06BE072E081E795E10E9420
:1009A0008F0EB10181E795E10E948F0E67E281E72A
:1009B00095E10E94BE0EA9C0D401ED91FC91028880
:1009C000F389E02DC40119950FB6F8945EBE0FBEF1
:1009D0004DBEBFEFEB1AFB0A0FA918AD29AD3AAD1A
:1009E0000F5F1F4F2F4F3F4F0FAB18AF29AF3AAFDD
:1009F00023962EAD3FAD2397E216F30609F47EC091
:100A00004DB65EB6ADB7BEB7AA19BB090FB6F8941E
:100A1000BEBF0FBEADBFEDB7FEB73196FCAFEBAFBB
:100A2000F101A2A9B3A92FA938AD49AD5AAD0E94D1
:100A3000103529960CAD1DAD2EAD3FAD2997060F93
:100A4000171F281F391FB901A801440F551F661F22
:100A5000771F872D962D0E942316A5016BAD7CADC7
:100A6000872D962D0E9419168A159B0581F06CE141
:100A700072E081E795E10E94AC0E872D962D0E94D1
:100A80007B160FB6F8945EBE0FBE4DBE3EC0D401BD
:100A9000ED91FC910680F781E02DC401199501E0EC
:100AA00010E0960121964EAD5FAD21974E0D5F1D72
:100AB0006DAD7EADC4010E94B7300BAD1CAD20E022
:100AC00030E02C153D0509F477CFF8016191719163
:100AD0008F01762767277627C4012A962FAF2A979A
:100AE0002B963FAF2B970E9468312A962FAD2A97FD
:100AF0002B963FAD2B972F5F3F4FE3CFCE014C9608
:100B00000E947B16CE014C9602C0CE014C960E94EC
:100B1000181625968EAD9FAD25970FB6F8949EBFFB
:100B20000FBE8DBFC65BDF4F0FB6F894DEBF0FBEA2
:100B3000CDBFDF91CF911F910F91FF90EF90DF908C
:100B4000CF90BF90AF909F908F907F906F905F906D
:100B50004F903F902F900895AF92BF92CF92DF9227
:100B6000EF92FF920F931F93282FCB01BA01022E11
:100B7000000C330BD90144E0AA0FBB1F4A95E1F7E3
:100B8000A05DBD4F1496AD90BD90CD90DC901797B1
:100B9000220F331FF901E052FC4FE080F1800F2C4F
:100BA000000C000B110BFD013C9623812F93228139
:100BB0002F9321812F931C962C912F9320E030E0CE
:100BC000A9010E945E130F900F900F900F901F913C
:100BD0000F91FF90EF90DF90CF90BF90AF9008956E
:100BE000AF92BF92CF92DF92EF92FF920F931F933B
:100BF000282FCB01BA01022E000C330BD90144E09F
:100C0000AA0FBB1F4A95E1F7A05DBD4FAD90BD9007
:100C1000CD90DC901397220F331FF901EC52FC4F5B
:100C2000E080F1800F2C000C000B110BFD013896B9
:100C300023812F9322812F9321812F9318962C911A
:100C40002F9320E030E0A9010E945E130F900F90D7
:100C50000F900F901F910F91FF90EF90DF90CF902A
:100C6000BF90AF9008954F925F926F927F92AF9234
:100C7000BF92CF92DF92EF92FF920F931F93282F94
:100C8000CB01BA01A22F220FBB0BFD0124E0EE0F16
:100C9000FF1F2A95E1F7E05DFD4FE484F5840685AA
:100CA00017852481358146815781FD01EE0FFF1F95
:100CB000E052FC4F0190F081E02D2F01FF0F6608FC
:100CC00077087F926F925F924F92A12CB12C6501B1
:100CD0000E945E130F900F900F900F901F910F9135
:100CE000FF90EF90DF90CF90BF90AF907F906F908C
:100CF0005F904F9008954F925F926F927F92AF9264
:100D0000BF92CF92DF92EF92FF920F931F93282F03
:100D1000CB01BA01A22F220FBB0BFD0124E0EE0F85
:100D2000FF1F2A95E1F7E05DFD4FE084F184028525
:100D300013852081318142815381FD01EE0FFF1F18
:100D4000EC52FC4F0190F081E02D2F01FF0F66085F
:100D500077087F926F925F924F92A12CB12C650120
:100D60000E945E130F900F900F900F901F910F91A4
:100D7000FF90EF90DF90CF90BF90AF907F906F90FB
:100D80005F904F900895EDE4F5E08281938184595E
:100D90009F4F2081318120563F4F36832583908796
:100DA00087830895EDE4F5E082E084838FE593E0A6
:100DB0009183808383E993E0938382830C94C306B9
:100DC00020914D0530914E0537FD12C0E09151053F
:100DD000EE0FFF0BE052FC4F80819181AC014F532D
:100DE00051402417350734F09C012054314002C093
:100DF00020E030E080914F059091500597FD12C0A2
:100E0000E0915105EE0FFF0BEC52FC4F40815181F8
:100E1000BA01675D71098617970734F0CA01885DCA
:100E2000910902C080E090E030934E0520934D057B
:100E30009093500580934F050895EDE4F5E085818A
:100E40009681805A910991838083878190858C5601
:100E50009109938382830C94E006EDE4F5E04781E9
:100E6000508522813381A581B6810190F081E02DEA
:100E7000BD016E1B7F0BCA01821B930B0895AF92BD
:100E8000BF92CF92DF92EF92FF920F931F93EDE408
:100E9000F5E02281338140815181618572858481B1
:100EA000E6E38E02C0011124E8EDAE2EB12CF0E491
:100EB000CF2EDD24D394E12CF12C00E010E08057FC
:100EC0009D4F0E944B041F910F91FF90EF90DF9078
:100ED000CF90BF90AF900895AF92BF92CF92DF9224
:100EE000EF92FF920F931F930E942D077C0123E046
:100EF000E21AF1088B0103501109EDE4F5E02781B6
:100F00003085235031094581568143505109A185CF
:100F1000B285848166E38602C001112467E0A62EB3
:100F2000B12C77E0C72ED12CBD0180579D4F0E9478
:100F30004B041F910F91FF90EF90DF90CF90BF90E7
:100F4000AF9008950F931F930E942D0700E018EFB4
:100F500023E030E0AC0180915605909157050E9446
:100F600016291F910F910895EDE4F5E0DC014D91F4
:100F70005C91119760EA649F9001659F300D112488
:100F800040815181240F351F3183208312962D918A
:100F90003C9113974CE6429FC001439F900D112452
:100FA00022813381820F931F938382830C94E00606
:100FB000CF92DF92EF92FF920F931F93CF93DF9325
:100FC0006C01CDE4D5E089859A85DC01ED91FC9139
:100FD000048CF58DE02D20EEE22E27E0F22E08E1C4
:100FE00010E020E431E048ED50E060E070E0199559
:100FF0006FE178EF89859A850E94552C4CED50E081
:1010000065E070E089859A850E94492C62E08985B7
:101010009A850E944F2CB60189859A85DF91CF91E0
:101020001F910F91FF90EF90DF90CF900C94AC0E3A
:10103000CF92DF92EF92FF920F931F93CF93DF93A4
:10104000CDB7DEB728970FB6F894DEBF0FBECDBF81
:101050008DE4E82E85E0F82EF70145815681052EB6
:10106000000C660B770B84810E94AC05162FC72EEF
:10107000D82E092FF70147815085052E000C660BED
:10108000770B84810E94F005212F3C2D4D2D502F90
:1010900028960FB6F894DEBF0FBECDBFDF91CF917B
:1010A0001F910F91FF90EF90DF90CF900895809166
:1010B000520590915305863091058CF0E0915105D1
:1010C000EE0FFF0BE052FC4F20813181A90145500A
:1010D0005109841795072CF0C901069702C086E0D4
:1010E00090E0909353058093520580915405909120
:1010F0005505863091058CF0E0915105EE0FFF0B00
:10110000EC52FC4F20813181A901455051098417CF
:1011100095072CF0C901069702C086E090E09093F5
:1011200055058093540508958F929F92AF92BF9278
:10113000CF92DF92EF92FF92CF93DF9320915105F0
:10114000422F022E000C550B840F951F86309105FF
:1011500014F085E090E0EC0197FF02C0C0E0D0E021
:10116000C417D50709F43FC0409154055091550567
:10117000052E000C660B770B822F0E94F0056B0189
:101180007C018091520590915305AC01990F660B3B
:10119000770B809151050E94AC054B015C01B701B2
:1011A000A6018C2F0E947B066B017C01B501A40176
:1011B0008C2F0E9433067093530560935205D09292
:1011C0005505C0925405C09351050E945708DF9100
:1011D000CF91FF90EF90DF90CF90BF90AF909F9016
:1011E0008F900C941D07DF91CF91FF90EF90DF90CF
:1011F000CF90BF90AF909F908F900895CF93DF9343
:1012000000D01F92CDB7DEB7FC01809152059091BE
:10121000530520813181280F391F309353052093C6
:101220005205209154053091550582819381820F9A
:10123000931F90935505809354050E9457080E9470
:101240002D071A8219821C821B82653071051CF4DD
:101250002FEF3FEF05C06C33714024F021E030E008
:101260003A832983853091051CF48FEF9FEF05C0E9
:10127000843D910524F081E090E09C838B838981FB
:101280009A81892B21F48B819C81892B39F081E013
:1012900080935F05CE0101960E94B4070F900F90D6
:1012A0000F900F90DF91CF9108950F931F93CF93DD
:1012B000DF9300D01F92CDB7DEB782E00E94290EE7
:1012C00021E0892B09F020E020935C0583E00E9457
:1012D000290E21E0892B09F020E020935D0588E0AC
:1012E0000E94290E21E0892B09F020E020935E0561
:1012F00087E30E94460D20915A0530915B05821BC1
:10130000930B97FDCF968C0136E0159507953A958E
:10131000E1F786E30E94460D20915805309159056A
:10132000821B930B97FDCF9626E0959587952A957E
:10133000E1F71C830B8322273327281B390B3A83C1
:101340002983232B11F4012B61F00E946C07CE013D
:1013500001960E94FE0880915F05811102C00E94E3
:10136000A2070F900F900F900F90DF91CF911F91D8
:101370000F91089510924E0510924D051092500550
:1013800010924F0510925305109252051092550578
:1013900010925405109259051092580510925B0551
:1013A00010925A05EDE4F5E0158A168A178A108E18
:1013B000118E128E138E148E389684E1ED3EF8074E
:1013C00099F72FEF49E06AE08AE195E00C948E2DC1
:1013D000CF93DF930E94E40C62E082E00E94BD0D97
:1013E00062E083E00E94BD0D62E088E00E94BD0DD6
:1013F00087E30E94460DEC0186E30E94460D909320
:10140000590580935805D0935B05C0935A0540E871
:1014100055E260E070E081E795E10E94041281E707
:1014200095E10E94D50F10926105109260058AE146
:1014300095E0909357058093560540E050E0BA013F
:101440000E944F2E8091560590915705DC01ED9139
:10145000FC910488F589E02D63E01995809156058B
:1014600090915705DC01ED91FC91068CF78DE02DF4
:101470006FE170E0199566E083EB97E10E949F139E
:10148000811119C06CEE73E081E795E10E94AC0E0A
:1014900068E174E081E795E10E94AC0E67E374E0D7
:1014A00081E795E10E94AC0E61E574E081E795E18A
:1014B0000E94AC0EFFCF0E94D2060E943F070E94FE
:1014C000A2078CE894E0DF91CF910C94D807CF93DA
:1014D000DF93CDB7DEB7C450D2400FB6F894DEBF6D
:1014E0000FBECDBFCB50DE4F2883C55FD140CA5061
:1014F000DE4F3883C65FD140C950DE4F4883C75F97
:10150000D140C850DE4F5883C85FD140C750DE4F2E
:101510006883C95FD140C650DE4F7883CA5FD1402F
:10152000C550DE4F8883CB5FD140C450DE4F9883D7
:10153000CC5FD140C350DE4FA882CD5FD140C250B6
:10154000DE4FB882CE5FD140C150DE4FC882CF5F40
:10155000D140C050DE4FD882C050D240CF5FDD4F67
:10156000E882C150D240CE5FDD4FF882C250D240F7
:10157000CD5FDD4F0883C350D240CC5FDD4F188371
:10158000C450D2408E010F5F1F4F81E795E10E944A
:10159000D50F67E974E081E795E10E948F0E62E95B
:1015A00074E081E795E10E948F0EC750DE4F4881BD
:1015B00059816A817B81C95FD1402AE030E081E7AF
:1015C00095E10E94260F62E974E081E795E10E94AF
:1015D0008F0ECB50DE4F488159816A817B81C55F78
:1015E000D1402AE030E081E795E10E94260F62E9D0
:1015F00074E081E795E10E948F0ECF5FDD4F488157
:1016000059816A817B81C150D2402AE030E081E774
:1016100095E10E94260F62E974E081E795E10E945E
:101620008F0EC350DE4F488159816A817B81CD5F27
:10163000D1402AE030E081E795E10E94700F65E932
:1016400074E081E795E10E948F0E81E795E10E94A9
:10165000D50F8CE894E00E94D80740E157E260E0A3
:1016600070E081E795E10E94820F68017601E01A3F
:10167000F10A81E795E10E94890F892BD1F381E777
:1016800095E10E94B50FF60181936F018A3071F7E1
:10169000F801EE0DFF1D108262E974E0C8010E949E
:1016A00032343C010E948D0C6B017C01F30180817E
:1016B0008E34E9F462E974E080E090E00E94323414
:1016C00081E795E10E94D50F64E974E081E795E137
:1016D0000E948F0E48EE53E060E070E081E795E1F4
:1016E0000E94820F81E795E10E94D50FBECF87351A
:1016F00009F04AC062E974E080E090E00E94323470
:101700000E9408342B013C0162E974E080E090E023
:101710000E9432340E940834F40123E0EE0FFF1FD0
:101720002A95E1F7EE59FA4F6083718382839383A0
:10173000448255826682778281E795E10E94D50FC7
:1017400064E974E081E795E10E948F0E48EE53E072
:1017500060E070E081E795E10E94820F81E795E10A
:101760000E94D50FFFEF8F1A9F0A0E948D0C6C19F3
:101770007D09693E73400CF478CF64E974E081E739
:1017800095E10E948F0E71CF853409F4FECE812C35
:10179000912CFBCECF93DF93CDB7DEB760970FB61A
:1017A000F894DEBF0FBECDBF0E94E80919861A86E5
:1017B0001B861C861D861E861F86188A00E010E088
:1017C000FF24F39410925C0510925D0510925E0563
:1017D00010925F050E94550980915C05882319F0DD
:1017E00081E090E006C080915D05882331F08FEFA5
:1017F0009FEF0E949408F0925F0580915E05882318
:1018000071F1012BE1F40E94180829873A874B8770
:101810005C876D877E878F87988B89E994E00E942B
:10182000D80788E00E94290E892BD9F36CE271E079
:1018300080E090E00E94BE0C01E010E010C00E9429
:10184000180859016A017B018C0129853A854B856D
:101850005C856D857E858F8598890E94670A809159
:101860005F05882309F4AECF0115110519F48CE842
:1018700094E002C089E994E00E94D8070E943F07E3
:101880000E94A2079FCF1F920F920FB60F921124B2
:101890002F933F938F939F93AF93BF9380910315A3
:1018A00090910415A0910515B0910615309102157F
:1018B00023E0230F2D3720F40196A11DB11D05C093
:1018C00026E8230F0296A11DB11D209302158093D7
:1018D000031590930415A0930515B09306158091F8
:1018E000071590910815A0910915B0910A15019658
:1018F000A11DB11D8093071590930815A09309159C
:10190000B0930A15BF91AF919F918F913F912F9105
:101910000F900FBE0F901F9018952FB7F8946091FD
:1019200003157091041580910515909106152FBF30
:1019300008953FB7F8948091071590910815A091EC
:101940000915B0910A1526B5A89B05C02F3F19F0BF
:101950000196A11DB11D3FBFBA2FA92F982F88272F
:10196000820F911DA11DB11DBC01CD0142E0660F8A
:10197000771F881F991F4A95D1F70895CF92DF925C
:10198000EF92FF92CF93DF936B017C010E94990C41
:10199000EB01C114D104E104F10479F00E94990C27
:1019A0006C1B7D0B683E7340A0F381E0C81AD10820
:1019B000E108F108C851DC4FECCFDF91CF91FF90E7
:1019C000EF90DF90CF900895789484B5826084BDC5
:1019D00084B5816084BD85B5826085BD85B5816033
:1019E00085BDEEE6F0E0808181608083E1E8F0E093
:1019F0001082808182608083808181608083E0E8C2
:101A0000F0E0808181608083E1EBF0E080818460A0
:101A10008083E0EBF0E0808181608083E1E9F0E0A9
:101A2000808182608083808181608083E0E9F0E052
:101A3000808181608083E1EAF0E080818260808340
:101A4000808181608083E0EAF0E080818160808332
:101A5000E1E2F1E080818260808380818160808327
:101A6000E0E2F1E0808181608083EAE7F0E080815C
:101A700084608083808182608083808181608083B4
:101A80008081806880831092C1000895863308F0B9
:101A9000865390917B00282F2870977F922B9093EC
:101AA0007B0087702091000290E4299F900111240F
:101AB000822B80937C0080917A00806480937A00EE
:101AC00080917A0086FDFCCF80917800209179008A
:101AD00090E0922B089590E0FC013197E131F105FF
:101AE00008F04AC08827EE58FF4F8F4F0C94EA3415
:101AF000809180008F7703C0809180008F7D8093DC
:101B00008000089584B58F7702C084B58F7D84BD31
:101B100008958091B0008F7703C08091B0008F7DD1
:101B20008093B0000895809190008F7707C08091D6
:101B300090008F7D03C080919000877F80939000FC
:101B400008958091A0008F7707C08091A0008F7DBD
:101B500003C08091A000877F8093A00008958091AA
:101B600020018F7707C0809120018F7D03C0809175
:101B70002001877F809320010895CF93DF9390E029
:101B8000FC01E05CFD4F2491FC01EA57FD4F84917C
:101B9000882361F190E0880F991FFC01E050FD4F10
:101BA000C591D491FC01EA51FD4FA591B491611109
:101BB00009C09FB7F8948881209582238883EC918F
:101BC0002E230BC0623061F49FB7F8943881822FC6
:101BD000809583238883EC912E2B2C939FBF06C086
:101BE0008FB7F894E8812E2B28838FBFDF91CF9198
:101BF00008951F93CF93DF93282F30E0F901E6502B
:101C0000FE4F8491F901E05CFD4FD491F901EA5750
:101C1000FD4FC491CC23C9F0162F81110E946B0D8A
:101C2000EC2FF0E0EE0FFF1FEA51FD4FA591B491AC
:101C30008FB7F894111105C09C91ED2FE095E92321
:101C400002C0EC91ED2BEC938FBFDF91CF911F91F0
:101C50000895CF93DF93282F30E0F901E650FE4F2F
:101C60008491F901E05CFD4FD491F901EA57FD4FF1
:101C7000C491CC2391F081110E946B0DEC2FF0E008
:101C8000EE0FFF1FE453FD4FA591B491EC91ED23AE
:101C900081E090E021F480E002C080E090E0DF91FC
:101CA000CF910895CF92DF92EF92FF920F931F93FF
:101CB000CF93DF936C01EB017B01E40EF51E00E096
:101CC00010E0CE15DF0561F06991D601ED91FC9130
:101CD0000190F081E02DC6011995080F191FF1CF71
:101CE000C801DF91CF911F910F91FF90EF90DF908E
:101CF000CF9008956115710579F0FB0101900020E6
:101D0000E9F73197AF01461B570BDC01ED91FC91D0
:101D10000280F381E02D199480E090E008950C9406
:101D20007A0EDC01ED91FC910190F081E02D199487
:101D30000F931F93CF93DF93EC016DE00E94910E00
:101D40008C016AE0CE010E94910E800F911FDF91FD
:101D5000CF911F910F9108950F931F93CF93DF930E
:101D6000EC010E947A0E8C01CE010E94980E800F29
:101D7000911FDF91CF911F910F9108950F931F93A2
:101D8000CF93DF93EC010E94910E8C01CE010E9453
:101D9000980E800F911FDF91CF911F910F910895A1
:101DA0008F929F92AF92BF92CF92DF92EF92FF926B
:101DB0000F931F93CF93DF93CDB7DEB7A1970FB6E5
:101DC000F894DEBF0FBECDBF6C01142FE52FCB0101
:101DD000022F19A2223008F40AE07E0121E2E20E6D
:101DE000F11C802E912CA12CB12C612F7E2FA501EE
:101DF00094010E94A934029F1019112481E0E81A6D
:101E0000F1081A3014F4105D01C0195CF701108359
:101E1000122FE32FCA01232B242B252B31F7B701D7
:101E2000C6010E947A0EA1960FB6F894DEBF0FBECF
:101E3000CDBFDF91CF911F910F91FF90EF90DF9079
:101E4000CF90BF90AF909F908F900895CF92DF92E8
:101E5000EF92FF920F931F93CF93DF93EC016A01F0
:101E60007B012115310579F4E881F9810190F08138
:101E7000E02D642FDF91CF911F910F91FF90EF9094
:101E8000DF90CF9019942A303105E9F477FF1AC01A
:101E90006DE20E94910E8C0144275527BA014C191E
:101EA0005D096E097F092AE0CE010E94D00E800FE5
:101EB000911FDF91CF911F910F91FF90EF90DF90D5
:101EC000CF9008952AE0B701A601CE01DF91CF910E
:101ED0001F910F91FF90EF90DF90CF900C94D00E58
:101EE0000F931F93CF93DF93EC010E94260F8C0179
:101EF000CE010E94980E800F911FDF91CF911F910C
:101F00000F910895FC014483558366837783089578
:101F10000895FC0124853585F901E05CFF4F80813F
:101F20009181329620813181821B930B8F73992787
:101F30000895DC011C96ED91FC911D97DF01A05CDA
:101F4000BF4F2D913C91119712968D919C911197B5
:101F50002817390739F08D919C91E80FF91F80817E
:101F600090E008958FEF9FEF0895FC01A485B5855B
:101F7000FD01E05CFF4F20813181329680819181AB
:101F80002817390779F080819181A80FB91F8C91AA
:101F9000208131812F5F3F4F2F733327318320837F
:101FA00090E008958FEF9FEF0895FC0181A18823B1
:101FB00029F0A489B5898C9186FFFBCF11A20895E1
:101FC0000F931F93CF93DF93FC01A685B7858D01F7
:101FD000005C1F4FE8018881998101968F739927D2
:101FE000AD014E5B5F4FEA0128813981821793076B
:101FF000D1F3E80128813981A20FB31F6C93A68524
:10200000B785A05CBF4F11969C938E93A689B78924
:102010002C9181E090E0078C02C0880F991F0A94F0
:10202000E2F7822B8C9381E081A30488F589E02D6F
:1020300080818064808381E090E0DF91CF911F9167
:102040000F910895FB01E05CFF4F208131812F5FEC
:102050003F4F2F733327DB01AE5BBF4F4D915C9138
:102060002417350741F040815181DB01A40FB51FD2
:102070008C933183208308951F920F920FB60F9295
:1020800011240BB60F922F933F934F935F936F934F
:102090007F938F939F93AF93BF93EF93FF93809121
:1020A000C00082FD07C08091C6006FE677E10E9404
:1020B000221002C08091C600FF91EF91BF91AF91B5
:1020C0009F918F917F916F915F914F913F912F9150
:1020D0000F900BBE0F900FBE0F901F9018951F9280
:1020E0000F920FB60F9211240BB60F922F933F93BE
:1020F0004F935F936F937F938F939F93AF93BF9310
:10210000EF93FF938091C80082FD07C08091CE00BD
:1021100067EE76E10E94221002C08091CE00FF910E
:10212000EF91BF91AF919F918F917F916F915F914F
:102130004F913F912F910F900BBE0F900FBE0F90BC
:102140001F9018951F920F920FB60F9211240BB685
:102150000F922F933F934F935F936F937F938F9340
:102160009F93AF93BF93EF93FF938091D00082FD35
:1021700007C08091D6006FE576E10E94221002C070
:102180008091D600FF91EF91BF91AF919F918F9178
:102190007F916F915F914F913F912F910F900BBE67
:1021A0000F900FBE0F901F9018951F920F920FB6B1
:1021B0000F9211240BB60F922F933F934F935F937F
:1021C0006F937F938F939F93AF93BF93EF93FF93FF
:1021D0008091300182FD07C08091360167ED75E185
:1021E0000E94221002C080913601FF91EF91BF91B1
:1021F000AF919F918F917F916F915F914F913F919F
:102200002F910F900BBE0F900FBE0F901F9018953F
:102210001F920F920FB60F9211240BB60F922F93AD
:102220003F938F939F93EF93FF9320916B17309180
:102230006C1780916D1790916E172817390731F43C
:102240008091C1008F7D8093C10014C0E0916D1713
:10225000F0916E17E55DF84E208180916D17909199
:102260006E1701968F73992790936E1780936D1751
:102270002093C600FF91EF919F918F913F912F91F5
:102280000F900BBE0F900FBE0F901F9018951F92CE
:102290000F920FB60F9211240BB60F922F933F930C
:1022A0008F939F93EF93FF932091E3163091E41661
:1022B0008091E5169091E6162817390731F4809140
:1022C000C9008F7D8093C90014C0E091E516F0919C
:1022D000E616ED55F94E20818091E5169091E616AF
:1022E00001968F7399279093E6168093E5162093B5
:1022F000CE00FF91EF919F918F913F912F910F9081
:102300000BBE0F900FBE0F901F9018951F920F924B
:102310000FB60F9211240BB60F922F933F938F930A
:102320009F93EF93FF9320915B1630915C16809101
:102330005D1690915E162817390731F48091D1000F
:102340008F7D8093D10014C0E0915D16F0915E16F0
:10235000E55EF94E208180915D1690915E160196A2
:102360008F73992790935E1680935D162093D60005
:10237000FF91EF919F918F913F912F910F900BBE05
:102380000F900FBE0F901F9018951F920F920FB6CF
:102390000F9211240BB60F922F933F938F939F931D
:1023A000EF93FF932091D3153091D4158091D515DB
:1023B0009091D6152817390731F4809131018F7D1E
:1023C0008093310114C0E091D515F091D615ED56EA
:1023D000FA4E20818091D5159091D61501968F7374
:1023E00099279093D6158093D51520933601FF91A8
:1023F000EF919F918F913F912F910F900BBE0F9076
:102400000FBE0F901F901895CF92DF92EF92FF9220
:102410000F931F93CF93DF93EC016A017B0141156A
:10242000514E6105710509F1EC89FD8981E090E06B
:1024300008A002C0880F991F0A94E2F7808360E029
:1024400079E08DE390E0A70196010E94A93489010B
:102450009A010150110921093109369527951795DF
:102460000795980101151041A8F0EC89FD891082AB
:1024700060E874E88EE190E0A70196010E94A9341B
:10248000DA01C9010197A109B109B695A7959795F8
:1024900087959C01E889F9893083EA89FB89208343
:1024A00019A2EE89FF89408181E090E09C010C8CAB
:1024B00002C0220F331F0A94E2F7242B2083EE89F7
:1024C000FF8940819C010D8C02C0220F331F0A94AA
:1024D000E2F7242B2083EE89FF8940819C010E8C3A
:1024E00002C0220F331F0A94E2F7242B2083EE89C7
:1024F000FF8920810F8C02C0880F991F0A94E2F790
:10250000809582238083DF91CF911F910F91FF905F
:10251000EF90DF90CF900895CF92DF92EF92FF92ED
:10252000E1E7F5E11382128288EEC82E83E0D82E0F
:10253000E12CF12CC482D582E682F78261EA74E054
:10254000718360838FE697E1958784878BE297E1BB
:102550009787868785EC90E0918B808B84EC90E068
:10256000938B828B80EC90E0958B848B81EC90E058
:10257000978B868B82EC90E0918F808F86EC90E039
:10258000938F828F44E0448F33E0358F27E0268F8E
:1025900095E0978F81E080A3EFE4F5E1138212824A
:1025A000C482D582E682F78271836083A7EEB6E1AA
:1025B000B587A487A3EAB6E1B787A687ADECB0E0FC
:1025C000B18BA08BACECB0E0B38BA28BA8ECB0E0ED
:1025D000B58BA48BA9ECB0E0B78BA68BAAECB0E0CE
:1025E000B18FA08FAEECB0E0B38FA28F448F358F48
:1025F000268F978F80A3EDE2F5E113821282C482C9
:10260000D582E682F78271836083AFE5B6E1B58754
:10261000A487ABE1B6E1B787A687A5EDB0E0B18BA3
:10262000A08BA4EDB0E0B38BA28BA0EDB0E0B58B96
:10263000A48BA1EDB0E0B78BA68BA2EDB0E0B18F7B
:10264000A08FA6EDB0E0B38FA28F448F358F268F79
:10265000978F80A3EBE0F5E113821282C482D582CA
:10266000E682F7827183608367ED75E17587648721
:1026700063E975E17787668765E371E0718B608B4D
:1026800064E371E0738B628B60E371E0758B648B44
:1026900061E371E0778B668B62E371E0718F608F2D
:1026A00066E371E0738F628F448F358F268F978F2B
:1026B00080A3FF90EF90DF90CF9008954F925F92AC
:1026C0006F927F92AF92BF92CF92DF92EF92FF9282
:1026D0000F931F93CF93DF93CDB7DEB729013A0154
:1026E0009B01AC0124193509460957098A899B8940
:1026F000AC89BD89BC01CD016A197B098C099D0992
:102700000E949934A80197012419350946095709EF
:102710000E94CB34CA01B9016A0D7B1D8C1D9D1D21
:10272000DF91CF911F910F91FF90EF90DF90CF90AD
:10273000BF90AF907F906F905F904F9008950F93F0
:102740001F93CF93DF93EC01462F61E00E94971E09
:10275000882391F08E01045F1F4F41E0BE01C80144
:102760000E944D24882351F0B801CE018A960E9420
:10277000731791E081110AC090E008C040E0BE01EB
:10278000C8010E944D248823B9F3EECF892FDF9131
:10279000CF911F910F910895FC01DB0112968D914D
:1027A0009C9113979383828383EC94E0918380833D
:1027B00014968C911497848315968C911597858324
:1027C00016964D915D916D917C9119974683578333
:1027D000608771871A964D915D916D917C911D97DF
:1027E00042875387648775871E964D915D916D91E1
:1027F0007C91519746875787608B718B52968C914D
:102800005297828B53964D915D916D917C91569725
:10281000438B548B658B768B57964D915D916D9163
:102820007C915A97478B508F618F728F5B968D91F9
:102830009C915C97948F838F08954F925F926F92D3
:102840007F928F929F92AF92BF92CF92DF92EF9240
:10285000FF920F931F93CF93DF93CDB7DEB7C7548B
:10286000D1090FB6F894DEBF0FBECDBF6C015A017F
:102870004901665D7F4F7E018EE1E80EF11CC701C4
:102880000E94CC131C821B8283EC94E09A83898380
:102890001E828501FE0131963F0127016FE270E043
:1028A000C8010E9443340097D9F1F80120812F32EA
:1028B00019F40F5F1F4FF2CF801B8D3008F08CE0B2
:1028C000E82EF12CA701B801CE01CB960E944E3420
:1028D000EBE3F0E0EC0FFD1FEE0DFF1D1082C301D6
:1028E0000E94EF1921E0AE01455C5F4FB201C301C8
:1028F0000E94231B811109C0F6011382128283EC0E
:1029000094E091838083158214C00E0D1F1DC201B7
:102910000E94EF19942D852D2301692E782EBECFAC
:102920000A191B09F40111830083B201C6010E9438
:10293000CC13C601C95BDF4F0FB6F894DEBF0FBEE4
:10294000CDBFDF91CF911F910F91FF90EF90DF905E
:10295000CF90BF90AF909F908F907F906F905F903F
:102960004F900895CF92DF92FF920F931F93CF93D2
:10297000DF93CDB7DEB7C955D1090FB6F894DEBFE6
:102980000FBECDBF6C018A01F22E9E01285A3F4F27
:10299000CE01CB960E941D146A968EAD9FAD6A97AC
:1029A000080F191FF801808181110AC0BE01655C02
:1029B0007F4FCE0101960E94CC134DEA54E03EC0F9
:1029C00019A218A283EC94E09F8F8E8F1BA22196F0
:1029D0008FAD2197811104C0C6010E94051634C035
:1029E00082502F2DA801823048F46DED77E1CE01A1
:1029F0004E960E94231B81110EC0EECFBE01655C76
:102A00007F4FCE014E960E94231B882329F3CE01CF
:102A1000CB960E94EF199F2D967041F049A95AA9B3
:102A20006BA97CA9CE014E960E941219BE01625E6E
:102A30007F4FCE0101960E94CC13A801BE016F5FAB
:102A40007F4FC6010E94D015C601C75ADF4F0FB68F
:102A5000F894DEBF0FBECDBFDF91CF911F910F91D4
:102A6000FF90DF90CF900895E3EBF7E11582168297
:102A70001186138682E090E0A0E0B0E0848795871D
:102A8000A687B78713A215A614A683EC94E093A794
:102A900082A717A60895CF93DF931F92CDB7DEB715
:102AA0006983DC01ED91FC910280F381E02D41E02E
:102AB00050E0BE016F5F7F4F19950F90DF91CF916E
:102AC0000895CF93DF93EC01898D9A8D009739F4A7
:102AD00081E090E09B838A8380E090E00BC0FC0162
:102AE000138212820E94111CE98DFA8D228133819A
:102AF000232B71F7DF91CF910895FC01818D928D89
:102B0000009711F00C94A8190895CF93DF931F92AA
:102B1000CDB7DEB741E050E0BE016F5F7F4F0E944E
:102B2000C417019719F4898190E002C08FEF9FEFDD
:102B30000F90DF91CF910895FC01818D928D0097C8
:102B400011F00C9485158FEF9FEF08950F931F934D
:102B5000CF93DF93FC01818D928D0097B9F0EF0147
:102B60000E9485158C010F3F8FEF180791F0898D1A
:102B70009A8DFC01428553856485758541505109C4
:102B8000610971090E941219C80105C080E090E036
:102B900002C08FEF9FEFDF91CF911F910F910895AA
:102BA000EF92FF920F931F93CF93DF93EC017B0182
:102BB0008A011B821A8288EE93E0A0E0B0E08C8349
:102BC0009D83AE83BF8383EB94E0998388838DE1FB
:102BD00090E00E94A8329A8F898F009779F02DE1BA
:102BE000F701DC0101900D922A95E1F74CE050E0ED
:102BF000B801CE010C960E944E34188EDF91CF9111
:102C00001F910F91FF90EF900895FC0113821282A3
:102C100088EE93E0A0E0B0E084839583A683B78339
:102C200083EB94E091838083128E118E1486089535
:102C30000895FC01818D928D009711F00C94C417BA
:102C400080E090E00895FC01818D928D009711F055
:102C50000C94121980E00895DC015996ED91FC91D5
:102C60005A97309729F062857385848595850895F4
:102C70006FEF7FEFCB010895DC015996ED91FC9148
:102C80005A97309729F063897489858996890895C0
:102C900060E070E0CB010895CF92DF92EF92FF9257
:102CA000CF93DF93FC01218D328D232BD9F0EC01E2
:102CB0000E943C166B017C01CE010E942C16A701DC
:102CC0009601261B370B480B590BDA01C9018115F8
:102CD00030E89307A105B10538F08FEF9FE7A0E03A
:102CE000B0E002C080E090E0DF91CF91FF90EF90E4
:102CF000DF90CF900895CF93DF93EC01898D9A8D6B
:102D0000009741F00E94EF19898D9A8D0E943D3302
:102D10001A8E198EDF91CF910895DC015996ED91AD
:102D2000FC915A97309721F081E09581911101C073
:102D300080E00895CF93DF93EC019C012A5F3F4F21
:102D400041E050E060E070E08B8D9C8D0E94E222BB
:102D50008823A1F08F89988DA98DBA8D892B8A2B14
:102D60008B2B59F48E819F81A885B9858F8B988F85
:102D7000A98FBA8F8C8180688C8381E0DF91CF919D
:102D80000895CF92DF92EF92FF921F93CF93DF933C
:102D9000EC010E949A16811102C080E04AC0EB8DBE
:102DA000FC8DCE80DF80E884F98482E0C81AD108E7
:102DB000E108F108058404C0CC0CDD1CEE1CFF1CEE
:102DC0000A94D2F786859785A089B189C80ED91E45
:102DD000EA1EFB1E148181E0C81AD108E108F1083F
:102DE000112361F0C701B601610F711D811D911D95
:102DF0000E943121882389F21150F2CFEB8DFC8D96
:102E000080E092E0A0E0B0E0058404C0880F991F44
:102E1000AA1FBB1F0A94D2F74B895C896D897E89F2
:102E2000840F951FA61FB71F8B8B9C8BAD8BBE8B02
:102E300081E0DF91CF911F91FF90EF90DF90CF90D5
:102E40000895CF93DF93EC01462F6E857F858889A7
:102E500099890E94F620882341F08A8920E2829F86
:102E6000C00111248B5F974E02C080E090E0DF919B
:102E7000CF910895FB019B01255F3F4F40E24193B5
:102E8000E217F307E1F7DC0190E027E08D9188235A
:102E900019F18E3219F0EAE1F3E008C02A3009F1A5
:102EA00098E02AE0F3CF31963817D9F034913111F8
:102EB000FACF2917B0F03FED380F3E3590F431E0EE
:102EC000390FFB01E90FF11D9FE9980F9A3108F4C2
:102ED00080528083932FDACF81E0FB019081903282
:102EE00009F480E008950F931F93CF93DF93FC01C3
:102EF0002581222311F080E042C08B01EC01FB010F
:102F000087898031B1F482E08D831F8A188E198EF3
:102F10001A8E808D918DA0E0B0E025E0880F991F7A
:102F2000AA1FBB1F2A95D1F78B8B9C8BAD8BBE8BB9
:102F300015C0803201F783E08D83FB01428D538DF4
:102F4000648D758D4F8B588F698F7A8F9E012D5EA2
:102F50003F4FC8010E94D921882369F21C8F0B8F33
:102F600081E08C831E821F82188619861A861B8632
:102F70001C861D861E861F86188A198A1A8ADF916A
:102F8000CF911F910F9108952F923F924F925F9290
:102F90006F927F928F929F92AF92BF92CF92DF9269
:102FA000EF92FF920F931F93CF93DF93EC015B019E
:102FB0004A018D81811103C08FEF9FEFD7C08C81B3
:102FC00080FFFACF4B885C886D887E884A855B8558
:102FD0006C857D85C401A0E0B0E093018201041BF3
:102FE000150B260B370B081719072A073B0718F490
:102FF0004201841A950A24011E0126E0220E311C8A
:103000004114510409F47EC04A855B856C857D8539
:103010006A0181E0D822ED818A019B0189E0369521
:103020002795179507958A95D1F78B8D9C8DE23062
:1030300061F4FC01828D938DA48DB58DBC01CD0111
:10304000600F711F821F931F3FC0FC0174807A9430
:103050007022C114D104C9F4711017C0452B462B3E
:10306000472B49F48F89988DA98DBA8D8E839F83C4
:10307000A887B9870AC04E815F81688579859101EB
:103080000E945521882309F497CFEB8DFC8D8E810A
:103090009F81A885B9850297A109B109058404C05B
:1030A000880F991FAA1FBB1F0A94D2F74685578520
:1030B00060897189840F951FA61FB71FBC01CD01C0
:1030C000670D711D811D911D20E032E02C193D0915
:1030D00032012415350508F439012C8126FD04C080
:1030E0006114F2E07F0679F500910102109102026D
:1030F0002091030230910402601771078207930741
:1031000019F421C0C40132C0750183019601AB01DD
:10311000BC0180910318909104180E941920882303
:1031200009F44ACFA60CB71C8A859B85AC85BD8562
:10313000860D971DA11DB11D8A879B87AC87BD8712
:10314000461857085DCF40E00E94F620882309F416
:1031500033CFF601EB5FF74ED501CF01860D971DFA
:10316000E817F907F9F221912D93FACFDF91CF916A
:103170001F910F91FF90EF90DF90CF90BF90AF9095
:103180009F908F907F906F905F904F903F902F9087
:103190000895FF920F931F93CF93DF931F92CDB7A4
:1031A000DEB7FC012581223018F480E090E033C0C6
:1031B0008C01FC01428553856485758585E0769593
:1031C0006795579547958A95D1F7F42FFF70FF2E95
:1031D00041E050E0BE016F5F7F4FC8010E94C417FD
:1031E000019719F4898190E002C08FEF9FEF01965B
:1031F000E1F2F80182859385A485B5854F96A11DDE
:10320000B11D82879387A487B587F0E2FF9EC00136
:1032100011248B5F974E0F90DF91CF911F910F91EB
:10322000FF9008958F929F92AF92BF92CF92DF92BC
:10323000EF92FF920F931F93CF93DF93EC018D8159
:10324000811102C080E077C00B891C892D893E89DD
:103250000417150726073707A8F36A017B01823098
:1032600029F4CA86DB86EC86FD860DC0C114D10424
:10327000E104F10451F41E821F82188619861A8611
:103280001B861C861D8681E056C08A849B84AC8484
:10329000BD84EB8DFC8D258530E0275F3F4FB50168
:1032A000A4014150510961097109022E04C07695AB
:1032B0006795579547950A94D2F7D701C6010197AC
:1032C000A109B10904C0B695A795979587952A9548
:1032D000D2F784179507A607B70720F089288A2810
:1032E0008B2849F44F89588D698D7A8D4E835F8381
:1032F0006887798704C0841B950BA60BB70B4C011C
:103300005D018E010A5F1F4F81149104A104B10475
:1033100009F4A7CF4E815F816885798598018B8DEF
:103320009C8D0E94552191E0891A9108A108B1084D
:103330008111EACF87CFDF91CF911F910F91FF903D
:10334000EF90DF90CF90BF90AF909F908F900895B7
:103350000F931F93CF93DF93EC018D818823C9F1E5
:103360008C8187FF30C061E0CE010E9421178C0163
:10337000892B79F18D81823048F48B899C89AD89C4
:10338000BE89F801848F958FA68FB78F8F89988D0E
:10339000A98DBA8DF801938F828FB58BA48BE091A4
:1033A000FC17F091FD17309759F0B8016A5E7F4F16
:1033B000C80148961995F801808D918D938B828B69
:1033C0008C818F778C83DF91CF911F910F910C941B
:1033D000BB2080E0DF91CF911F910F910895CF9393
:1033E000DF93EC010E94A819882311F01D8281E06F
:1033F000DF91CF9108954F925F926F927F928F925B
:103400009F92AF92BF92EF92FF920F931F93CF9331
:10341000DF9300D01F92CDB7DEB7FC0185818130EC
:10342000E9F4848181FF1AC083899489A589B689CA
:1034300084179507A607B70788F0892B8A2B8B2B53
:1034400009F479C04A015B017F014284538464849A
:103450007584CF010E941219811102C080E06CC0F6
:10346000F701838D948D81149104A104B10471F44A
:103470004789508D618D728D0E94F723882371F3E7
:10348000F701178A108E118E128E3AC0F70146810D
:103490005781608571859E012F5F3F4F0E945521A6
:1034A0008823E1F249815A816B817C81F701838D08
:1034B000948DFC012789203129F008EF1FEF2FEFB1
:1034C0003FE004C008EF1FEF20E030E04017510755
:1034D00062077307A8F40E94F723882309F4BECF7C
:1034E000F70146815781608571850FEF1FEF2FEF40
:1034F0003FE0838D948D0E944222882309F4AECF51
:10350000F701838A948AA58AB68A84818068848335
:10351000C7010E94A819882309F4A0CFB501A4010E
:10352000481459046A047B0410F4B301A201C701D2
:103530000E94121901C081E00F900F900F900F9020
:10354000DF91CF911F910F91FF90EF90BF90AF90BF
:103550009F908F907F906F905F904F9008951F93F2
:10356000CF93DF93EC0180E2689FF00111249F016B
:103570002B5F374ED9011B969C91917129F0842FB6
:10358000827411F080E05BC0142F6A8B809101027D
:1035900090910202A0910302B09104028E879F874E
:1035A000A88BB98BEB5FF74E4489558960E070E0DA
:1035B000BA01552744274F8B588F698F7A8F828D98
:1035C000938DA0E0B0E0482B592B6A2B7B2B4F8BBF
:1035D000588F698F7A8FD9011B968C91887151F41D
:1035E000848D958DA68DB78D8B8B9C8BAD8BBE8B73
:1035F00081E00DC0803131F69E012D5E3F4F8B8DF5
:103600009C8D0E94D921882309F4BCCF84E08D834E
:10361000812F8F708C831E821F82188619861A86CE
:103620001B861C861D8616FF09C040E050E0BA01CB
:10363000CE01DF91CF911F910C94FB1981E0DF91B6
:10364000CF911F910895CF92DF92EF92FF920F9347
:103650001F93CF93DF93CDB7DEB72C970FB6F894B7
:10366000DEBF0FBECDBFFC0135813111C2C0D22EED
:103670008B017C01BE016F5F7F4FCA010E943A1728
:10368000882309F4B6C0F801838D948DF701948FD7
:10369000838FF80116821782108611861286138690
:1036A0001486158630E0F80182859385A485B5855A
:1036B000438954896589768984179507A607B707D2
:1036C00008F041C025E0B695A795979587952A956E
:1036D000D1F7F82FFF70CF2EC8013C870E94C91880
:1036E0003C85009709F485C0FC012081222309F460
:1036F00084C0253E99F04BE050E0BC01CE0101961C
:103700003C870E9436343C85892B69F68D2D807369
:10371000803309F46EC04D2D6C2D67C031116BC024
:10372000F701C28A409101025091020260910302A6
:103730007091040246875787608B718BFC018081F2
:1037400031E08111B0CF8D2D8271823109F051C0ED
:10375000332341F061E0C7010E9421178C01892BBE
:1037600079F447C0F8018581823009F442C0C8016C
:103770000E94C1168823E9F1F701128A05E018E1D9
:1037800080E2F80111928A95E9F78BE0FE0131960B
:10379000D80101900D928A95E1F7E091FC17F09124
:1037A000FD17309739F0B801625F7F4FC80140962E
:1037B000199509C081E298E2F801918B808B80E035
:1037C00098E097878687F80180899189938B828B0F
:1037D000918F808F86859785978B868B0E94BB20E3
:1037E000882339F04D2DF7016289C7010E94AF1A75
:1037F00009C080E007C031E056CF332309F490CFF1
:1038000031E0A1CF2C960FB6F894DEBF0FBECDBF2E
:10381000DF91CF911F910F91FF90EF90DF90CF90AC
:1038200008952F923F924F925F926F927F928F9264
:103830009F92AF92BF92CF92DF92EF92FF920F933F
:103840001F93CF93DF9300D01F92CDB7DEB78C01CB
:103850006B013A01DC0115968C9115978130C9F402
:1038600014968C9181FF15C082FF1DC0F801438919
:1038700054896589768982859385A485B585841761
:103880009507A607B70779F0C8010E9412198111A0
:103890000AC081E090E0D80113969C938E93129712
:1038A00080E090E048C1430184C0D8015B968D91CF
:1038B0009C915C97FC0154802FEF250D1A012B0180
:1038C00039E056944794379427943A95D1F7522E7D
:1038D00052207A01F1E0FF22552009F476C080E001
:1038E00092E08E199F0954018815990508F45C012E
:1038F000D8015B962D913C915C9716968D919D9188
:103900000D90BC91A02D0297A109B109F901058480
:1039100004C0880F991FAA1FBB1F0A94D2F74685BF
:10392000578560897189840F951FA61FB71F9C0159
:10393000AD01250D311D411D511D19012A01A11493
:1039400032E0B30609F088C0809101029091020232
:10395000A0910302B091040282159305A405B50558
:1039600059F48FEF9FEFDC018093010290930202E4
:10397000A0930302B09304029601B201A1018091C9
:103980000318909104180E946D20882309F481CFB8
:103990009EEFD91A8A189B08F80182859385A48521
:1039A000B5858A0D9B1DA11DB11D82879387A487B4
:1039B000B587D8011A964D915D916D917C911D97B7
:1039C0008114910409F071CF87C0E114F10409F06A
:1039D00086CF16964D915D916D917C911997411509
:1039E00051056105710559F457968D919D910D9082
:1039F000BC91A02D0097A105B10541F521C09E0104
:103A00002F5F3F4F0E945521882309F44ACF8981B7
:103A10009A81AB81BC81F801238D348DF90127890E
:103A2000203129F048EF5FEF6FEF7FE004C048EFEF
:103A30005FEF60E070E084179507A607B70730F0E6
:103A4000C8010E949A1681114ACF23CFF8018683BC
:103A50009783A087B18743CFE114F10429F5D801FA
:103A60001A964D915D916D917C911D9753968D9114
:103A70009D910D90BC91A02D481759076A077B07AF
:103A800098F00E94BB20882309F403CF2092010202
:103A90003092020240920302509204028091021876
:103AA00081608093021808C041E0C201B1010E9408
:103AB000F620882309F4EDCED601F701EB5FF74E2F
:103AC000CF018A0D9B1DE817F90719F02D9121935D
:103AD000FACFCA0CDB1C5ECF5396CD90DD90ED90F3
:103AE000FC90569714968C91C416D506E606F706F8
:103AF00040F4F801438B548B658B768B806884830C
:103B00000DC02091FC173091FD17232B39F0611463
:103B1000710421F08068D80114968C93F801848197
:103B200083FD02C0C30107C0C8010E94A8198823F1
:103B300009F4AFCEF7CF0F900F900F900F90DF9159
:103B4000CF911F910F91FF90EF90DF90CF90BF909A
:103B5000AF909F908F907F906F905F904F903F902D
:103B60002F900895CF93DF931F92CDB7DEB769836F
:103B700041E050E0BE016F5F7F4F0E94111C0F902B
:103B8000DF91CF9108958EBD0DB407FEFDCF08954E
:103B90008FEF0E94C31D8EB5089561E0FC01848102
:103BA0000C94F90D60E0FC0184810C94F90DCF9325
:103BB000DF93FC0186818823D1F08FEF8EBD4FEF1C
:103BC000878190859C012F5F3F4F3087278381300D
:103BD000924028F40DB407FEFDCF4EBDF1CF0DB4D9
:103BE00007FEFDCFEF01CF010E94CD1D1E82DF91A8
:103BF000CF910895673028F026E1FC01258380E00D
:103C000008958DB560FD02C0663011F48E7F01C04D
:103C100081608DBD8CB58C7F8CBD9CB562FD02C072
:103C200080E001C082E066956170692B862B8CBDB7
:103C300081E008950F931F93CF93DF93EB010E94D0
:103C40008D0C8B010E94C81D8F3F49F00E948D0C86
:103C5000601B710B6C177D07A8F380E001C081E049
:103C6000DF91CF911F910F910895CF92DF92FF9234
:103C70000F931F93CF93DF9300D01F92CDB7DEB782
:103C80006C01F62E29833A834B835C830E94D71DF7
:103C9000C6010E94D21D6CE271E0C6010E941A1E8C
:103CA0008F2D80640E94C31D08E110E05C814B8170
:103CB0003A812981DA01C901002E04C0B695A79581
:103CC000979587950A94D2F729833A834B835C832F
:103CD0000E94C31D0850110929813A814B815C81E2
:103CE000083F8FEF180731F7FF2029F0E8E0FE12B8
:103CF00004C087E803C085E901C08FEF0E94C31D9F
:103D000010E00E94C81DF601828787FF04C01F3F94
:103D100011F01F5FF6CF0F900F900F900F90DF9173
:103D2000CF911F910F91FF90DF90CF9008958F92C8
:103D30009F92AF92BF92EF92FF920F931F93CF93F8
:103D4000DF93EC01E62E1B8619861E821D824C83B2
:103D50000E948D0C8B0161E08C810E94BD0DCE0113
:103D60000E94CD1D60E082E30E94BD0D61E083E30F
:103D70000E94BD0D61E084E30E94BD0D61E085E31A
:103D80000E94BD0D61E085E30E94F90D83E58CBDC5
:103D90008DB58E7F8DBD2AE0F22E8FEF0E94C31D60
:103DA000FA94F110FACFCE010E94D21D20E030E04B
:103DB000A90160E0CE010E94351EF82E8A8781E0BD
:103DC000F81649F00E948D0C601B710B613D774025
:103DD00068F381E04CC02AEA31E040E050E068E05E
:103DE000CE010E94351E82FF02C0FB860EC094E009
:103DF000F92E0E94C81D8A87FA94F110FACF8A3AE8
:103E000011F082E034C082E08B878B85823021F014
:103E1000812C912C540105C0812C912CA12C80E483
:103E2000B82E20E030E0A90167E3CE010E94351EE4
:103E3000A501940169E2CE010E94351E8A8788237C
:103E400049F00E948D0C601B710B613D774048F377
:103E500088E00DC08B85823039F520E030E0A90183
:103E60006AE3CE010E94351E882389F086E08D83A7
:103E7000CE010E94CD1D80E0DF91CF911F910F9167
:103E8000FF90EF90BF90AF909F908F9008950E9409
:103E9000C81D807C803C11F483E08B870E94C81D84
:103EA0000E94C81D0E94C81DCE010E94CD1D6E2D0E
:103EB000CE01DF91CF911F910F91FF90EF90BF90B6
:103EC000AF909F908F900C94FA1D0F931F93CF93F8
:103ED000DF93EC010E948D0C8B010E94C81D8A8724
:103EE0008F3F49F40E948D0C601B710B6D32714045
:103EF000A0F38FE003C08E3F39F08DE08D83CE01BB
:103F00000E94CD1D80E001C081E0DF91CF911F9123
:103F10000F910895CF92DF92EF92FF920F931F932C
:103F2000CF93DF93EC016901C801820F931F8130A9
:103F3000924008F06FC08E81882371F0888199814A
:103F4000AA81BB81481759076A077B0729F48F812B
:103F50009885C816D90618F5488359836A837B83E8
:103F60008B85833039F089E0440F551F661F771F1A
:103F70008A95D1F79A01AB0161E1CE010E94351E0D
:103F8000882319F083E08D8345C0CE010E94651F10
:103F9000882309F43FC018861F8281E08E838FEF4B
:103FA0008EBD2FEF8F8198858C159D0550F40DB433
:103FB00007FEFDCF2EBD8F819885019698878F8350
:103FC000F1CFC8010197F7014FEF9F012E193F096B
:103FD0002817390738F40DB407FEFDCF2EB521930D
:103FE0004EBDF3CF0DB407FEFDCF2EB5F701E80FA0
:103FF000F91F20838F819885080F191F18870F8359
:104000008985882319F00115124048F0CE010E94DD
:10401000D71D05C0CE010E94CD1D80E001C081E00A
:10402000DF91CF911F910F91FF90EF90DF90CF9094
:104030000895EF92FF920F931F930115110519F048
:104040000E948A1F01C081E01F910F91FF90EF90A5
:104050000895EF92FF920F931F93790100E012E011
:1040600020E030E00E948A1F1F910F91FF90EF9097
:104070000895CF93DF93EC016EBD20E030E00DB4E6
:1040800007FEFDCFFA01E20FF31F80818EBD0DB454
:1040900007FEFDCF81818EBD2E5F3F4F211582E04F
:1040A000380769F70DB407FEFDCF8FEF0E94C31DDF
:1040B0008FEF0E94C31D0E94C81D8A87982F9F7191
:1040C000953039F081E18D83CE010E94CD1D80E0D5
:1040D00001C081E0DF91CF9108950F931F93CF939B
:1040E000DF93EC018901411551056105710511F45A
:1040F00082E132C08B85833039F089E0440F551F4F
:10410000661F771F8A95D1F79A01AB0168E1CE014E
:104110000E94351E882311F084E01EC0A8016EEFB6
:10412000CE010E9439208823C1F068E572E0CE01FB
:104130000E941A1E811102C085E10EC020E030E00D
:10414000A9016DE0CE010E94351E811104C00E94BC
:10415000C81D882339F084E18D83CE010E94CD1DD6
:1041600080E004C0CE010E94CD1D81E0DF91CF919F
:104170001F910F910895809102188823A9F1409111
:10418000010250910202609103027091040225E045
:1041900038E180910318909104180E946D208111DC
:1041A00002C080E008954091FE175091FF17609182
:1041B000001870910118411551056105710591F0C4
:1041C00025E038E180910318909104180E946D2039
:1041D000882339F31092FE171092FF1710920018DF
:1041E000109201181092021881E00895CF92DF9288
:1041F000EF92FF92CF936B017C01C42F809101025B
:1042000090910202A0910302B09104028C159D05C9
:10421000AE05BF05D1F00E94BB20811102C080E035
:104220001AC025E038E1B701A601809103189091EA
:1042300004180E942920882391F3C0920102D09291
:104240000202E0920302F092040280910218C82B4D
:10425000C093021881E0CF91FF90EF90DF90CF9054
:104260000895CF92DF92EF92FF926B017C010E9442
:10427000BB208823A9F0E5E0F8E111928AE1E5305E
:10428000F807D9F7C0920102D0920202E09203022D
:10429000F09204028091021881608093021881E0FC
:1042A000FF90EF90DF90CF9008958F929F92AF9202
:1042B000BF92CF92DF92EF92FF920F931F93CF9313
:1042C000DF93FC0181859285A385B4850196A11DAC
:1042D000B11D84179507A607B70710F480E05CC0EE
:1042E00083899489A589B689C789C03129F4852E27
:1042F000962EA72EBB2409C04A015B01C7E0B694E5
:10430000A79497948794CA95D1F7E9016A017B0134
:104310008F01BC01CD01680D791D8A1D9B1D809008
:10432000010290900202A0900302B090040268156E
:1043300079058A059B0599F4F80187898031A9F4EC
:10434000B701A601552766277727440F551FFA01A5
:10435000EB5FF74E80819181A0E0B0E018C040E0B3
:104360000E94F6208111E8CFB9CFB701A6014F779F
:10437000552766277727440F551F440F551FFA010D
:10438000EB5FF74E80819181A281B381BF708883FA
:104390009983AA83BB8381E0DF91CF911F910F9115
:1043A000FF90EF90DF90CF90BF90AF909F908F9055
:1043B00008954F925F926F927F92AF92BF92CF9289
:1043C000DF92EF92FF920F931F93CF93DF9300D072
:1043D0001F92CDB7DEB78C0149835A836B837C83F0
:1043E0005901C12CD12C7601412C82E0582E612C30
:1043F000712C49815A816B817C819E012F5F3F4FD7
:10440000C8010E945521882351F1D301C201F8014E
:10441000058404C0880F991FAA1FBB1F0A94D2F7F6
:10442000C80ED91EEA1EFB1E49815A816B817C8110
:104430008789803129F088EF9FEFAFEFBFE004C09C
:1044400088EF9FEFA0E0B0E0481759076A077B07A5
:1044500080F2F501C082D182E282F38281E00F9086
:104460000F900F900F90DF91CF911F910F91FF90C0
:10447000EF90DF90CF90BF90AF907F906F905F9064
:104480004F9008954F925F926F927F928F929F927A
:10449000AF92BF92CF92DF92EF92FF920F931F9352
:1044A000CF93DF93EC016A017B012801390142308F
:1044B00051056105710510F480E073C089859A8506
:1044C000AB85BC850196A11DB11D84179507A60774
:1044D000B70790F38B889C88AD88BE888F89803120
:1044E00029F4BB27AF2D9E2D8D2D09C0DB01CA01FC
:1044F00047E0B695A795979587954A95D1F7880E89
:10450000991EAA1EBB1E8091010290910202A091E9
:104510000302B091040288169906AA06BB0679F434
:104520008F898031A1F4DD24EE24FF24C601880F99
:10453000991FFC01EB5FF74E5182408219C040E0A9
:10454000C501B4010E94F6208111EACFB5CFE894ED
:10455000C7F8DD24EE24FF24C601880F991F880FB9
:10456000991FFC01EB5FF74E408251826282738299
:10457000809102188160809302188A89823080F0CD
:104580008D819E81AF81B885880E991EAA1EBB1EA3
:104590008092FE179092FF17A0920018B092011817
:1045A00081E0DF91CF911F910F91FF90EF90DF900D
:1045B000CF90BF90AF909F908F907F906F905F90C3
:1045C0004F9008952F923F924F925F926F927F92F9
:1045D0009F92AF92BF92CF92DF92EF92FF920F9392
:1045E0001F93CF93DF93CDB7DEB760970FB6F894E4
:1045F000DEBF0FBECDBF5C0149875A876B877C87C2
:104600001901D901CD90DD90ED90FC90C114D10439
:10461000E104F10431F0BFEFCB1ADB0AEB0AFB0A2D
:1046200010C0FC01C080D180E280F3809924939473
:1046300009851A852B853C85013011052105310539
:1046400009F0912CF50181859285A385B4858C01B3
:104650009D010F5F1F4F2F4F3F4F0D871E872F87E5
:10466000388B260137011D821E821F821886F501B4
:1046700081859285A385B4850D811E812F81388522
:10468000081719072A073B0708F056C02D853E85F5
:104690004F855889241535054605570550F482E0A5
:1046A000482E512C612C712C92E0C92ED12CE12C7A
:1046B000F12C9E012F5F3F4FB301A201C5010E9463
:1046C00055218823C9F149815A816B817C81D301AD
:1046D000C2010196A11DB11D452B462B472B19F098
:1046E0006C017D010FC0AC01BD014C195D096E0963
:1046F0007F0909851A852B853C854017510762077C
:10470000730779F02D813E814F8158852F5F3F4F90
:104710004F4F5F4F2D833E834F8358872C013D01C0
:10472000A6CF0FEF1FEF2FEF3FE0B301A201C501AE
:104730000E944222811118C080E041C0D301C20111
:104740000197A109B1098D839E83AF83B887930137
:104750008201AC01BD01C5010E944222882361F3A0
:104760004D805E806F807884C414D504E604F7041D
:1047700028F3D1014D915D916D917C9141155105C9
:104780006105710599F4F101C082D182E282F38260
:104790009920A1F0FFEFCF1ADF0AEF0AFF0AD50137
:1047A000CD92DD92ED92FC92139708C0970186019D
:1047B000C5010E9442228111E6CFBECF81E0609602
:1047C0000FB6F894DEBF0FBECDBFDF91CF911F9122
:1047D0000F91FF90EF90DF90CF90BF90AF909F90A0
:1047E0007F906F905F904F903F902F900895AF9281
:1047F000BF92CF92DF92EF92FF920F931F93CF93CE
:10480000DF9300D01F92CDB7DEB75C016A017B0158
:1048100082E090E0A0E0B0E0F50180839183A28384
:10482000B3839E012F5F3F4FB701A601C5010E94D0
:104830005521882311F100E010E09801B701A6018D
:10484000C5010E9442228823C1F0C980DA80EB8032
:10485000FC80F5018789803129F088EF9FEFAFEF69
:10486000BFE004C088EF9FEFA0E0B0E0C816D90613
:10487000EA06FB06B0F281E001C080E00F900F90E5
:104880000F900F90DF91CF911F910F91FF90EF90BC
:10489000DF90CF90BF90AF9008958F929F92AF928C
:1048A000BF92CF92DF92EF92FF920F931F93CF931D
:1048B000DF93EC01142F70930418609303184423C2
:1048C00069F1453010F080E0F2C040E060E070E057
:1048D000CB010E94F6208823B1F320E1129FA001B2
:1048E00011244B50584EFA01E254FE4F80818F77CD
:1048F00051F73C9680819181A281B38184369105E4
:10490000A105B10500F33497C080D180E280F38027
:10491000C114D104E104F10421F4D5CFC12CD12C70
:10492000760140E0C701B6010E94F620882359F2C3
:1049300080911018909111188115924021F6909154
:104940001518992309F4BFCF20911318309114182A
:10495000232B09F4B8CF80911218882309F4B3CF20
:104960009A8B8C831D8690E061E070E02D85E22FAC
:10497000AB01022E02C0440F551F0A94E2F78417C0
:10498000950731F031E0320F3D87283078F39BCF27
:1049900020911B1830911C182115310519F040E0A9
:1049A00050E008C02091291830912A1840912B1806
:1049B00050912C182D833E834F8358878091131874
:1049C0009091141846015701880E991EA11CB11C24
:1049D0008B8A9C8AAD8ABE8A00911618109117188E
:1049E000198F088FA0911518B0E00E941035860E1F
:1049F000971EA81EB91E8A8E9B8EAC8EBD8E85E03A
:104A0000000F111F8A95E1F701501E4F012F11274A
:104A10000695800E911EA11CB11C8E869F86A88AC9
:104A2000B98A20911818309119182115310521F0F3
:104A3000A90160E070E008C0409125185091261847
:104A40006091271870912818D701C6018819990913
:104A5000AA09BB09840F951FA61FB71F04C0B695EE
:104A6000A79597958795EA95D2F789879A87AB8717
:104A7000BC87853F2FE09207A105B10510F48CE0BB
:104A800014C0853F9F4FA105B10510F480E10DC012
:104A90008091311890913218A0913318B091341848
:104AA0008A8F9B8FAC8FBD8F80E28F8B81E0DF91EF
:104AB000CF911F910F91FF90EF90DF90CF90BF901B
:104AC000AF909F908F9008952F923F924F925F9258
:104AD0006F927F928F929F92AF92BF92CF92DF920E
:104AE000EF92FF920F931F93CF93DF9300D0CDB738
:104AF000DEB74C017B836A836A0159011701980173
:104B0000241B350B37FF03C0319521953109C501B1
:104B10004A815B81841B950B97FF03C0919581951A
:104B2000910951E059838217930714F019820BC041
:104B30009A2D8B2D5801092F182F9A818B81DB829A
:104B4000CA82C92ED82E8A819B81A816B9065CF428
:104B50009C2D8D2D6801092F182F9A818B81BB8286
:104B6000AA82A92EB82E2501AA81BB814A1A5B0A06
:104B700038016C187D0877FE03C071946194710848
:104B8000720157FE03C0BFEFEB1AFB0AF594E794DE
:104B9000C016D1061CF00FEF1FEF1FC001E010E0A0
:104BA0001CC0D401ED91FC91B9810084F185E02D08
:104BB0009101BB23C1F04A815B81B601C401199503
:104BC000E618F708F7FE04C0C00ED11EE40CF51C71
:104BD000EA81FB813196FB83EA834A815B81A416DB
:104BE000B506FCF604C0A6016A817B81E7CF0F9071
:104BF0000F900F90DF91CF911F910F91FF90EF9049
:104C0000DF90CF90BF90AF909F908F907F906F90EC
:104C10005F904F903F902F9008950895DC01ED91A3
:104C2000FC910480F581E02D19940F931F93DC0112
:104C3000ED91FC91008CF18DE02D19951F910F9154
:104C400008950F931F93DC01ED91FC91028CF38D7D
:104C5000E02D19951F910F910895EF92FF920F93F8
:104C60001F93DC01ED91FC91048CF58DE02D1995DD
:104C70001F910F91FF90EF9008950895AF92BF920A
:104C8000CF92DF92EF92FF920F931F93CF93DF9318
:104C900000D01F92CDB7DEB75C016901DC01ED9158
:104CA000FC910680F781E02D4B835C8369837A83D6
:104CB0001995D501ED91FC914B815C81C40ED51EF7
:104CC000B1E0CB1AD1080088F189E02D7801860186
:104CD00069817A819B01C5011995D501ED91FC91FE
:104CE0000288F389E02DC5010F900F900F900F906F
:104CF000DF91CF911F910F91FF90EF90DF90CF90B8
:104D0000BF90AF901994AF92BF92CF92DF92EF9283
:104D1000FF920F931F93CF93DF9300D01F92CDB7D5
:104D2000DEB75C016901DC01ED91FC910680F78141
:104D3000E02D4B835C8369837A831995D501ED91CE
:104D4000FC9169817A819B012C0D3D1D2150310917
:104D50000088F189E02D78014B815C818A01C501D1
:104D60001995D501ED91FC910288F389E02DC501DB
:104D70000F900F900F900F90DF91CF911F910F9197
:104D8000FF90EF90DF90CF90BF90AF9019944F922B
:104D90005F926F927F928F929F92AF92BF92CF92CB
:104DA000DF92EF92FF920F931F93CF93DF931F92A7
:104DB0001F92CDB7DEB76C015A0139014801DC0101
:104DC000ED91FC910680F781E02D69837A83199536
:104DD0006981462E7A81572E640C751CD601ED919F
:104DE000FC91461457046CF40484F585E02D87018A
:104DF0009401A501B201C6011995BFEF4B1A5B0AD8
:104E0000EDCF0288F389E02DC6010F900F90DF915E
:104E1000CF911F910F91FF90EF90DF90CF90BF90B7
:104E2000AF909F908F907F906F905F904F9019946C
:104E3000EF92FF920F931F93DC01ED91FC9111977C
:104E40001A960D911C911B9718962D913C911997CC
:104E5000048CF58DE02D7B0140E050E060E070E0D7
:104E600019951F910F91FF90EF900895CF92DF92C7
:104E7000EF92FF920F931F93CF93DF9300D000D058
:104E8000CDB7DEB76C01DC01ED91FC9162177307C1
:104E900089F4041715072CF4942F852FA801092FE6
:104EA000182F041B150B98012F5F3F4F008CF18DBD
:104EB000E02D12C04017510709F5261737072CF4CB
:104EC000962F872FB901292F382F261B370B2F5FDD
:104ED0003F4F028CF38DE02D8701C6011995269670
:104EE0000FB6F894DEBF0FBECDBFDF91CF911F91FB
:104EF0000F91FF90EF90DF90CF9008950680F7819B
:104F0000E02D2D833E834B835C8369837A831995DF
:104F1000D601ED91FC910088F189E02D2D813E8133
:104F20004B815C8169817A81C6011995D601ED9129
:104F3000FC910288F389E02DC60126960FB6F894FD
:104F4000DEBF0FBECDBFDF91CF911F910F91FF90BC
:104F5000EF90DF90CF9019946F927F928F929F92F3
:104F6000AF92BF92CF92DF92EF92FF920F931F9377
:104F7000CF93DF93EC014B015A0169013801E881BD
:104F8000F9810680F781E02D1995E881F981068481
:104F9000F785E02D87019601A501B401CE01199591
:104FA000E881F981A501460D571D4150510906843C
:104FB000F785E02D9601B401CE011995E881F981BC
:104FC0000484F585E02D9301A501B401CE01199566
:104FD000E881F981C80CD91CB601615071090484BB
:104FE000F585E02D9301A501CE011995E881F981A0
:104FF0000288F389E02DCE01DF91CF911F910F91AF
:10500000FF90EF90DF90CF90BF90AF909F908F90E8
:105010007F906F9019940895FC016370658B848173
:10502000958126813781613039F0633029F091878D
:1050300080873387228708953187208793878287E7
:105040000895FC01138212828BEC94E0918380839B
:10505000758364835783468371876087538742874C
:10506000158A158614861786168681E0848B2FEFA5
:105070003FEF338B228B318B208B868B178A118EDF
:10508000108E08952F923F924F925F926F927F926F
:105090008F929F92AF92BF92CF92DF92EF92FF9248
:1050A0000F931F93CF93DF93CDB7DEB728970FB63B
:1050B000F894DEBF0FBECDBF5C013B014A013887CB
:1050C0002F83FC82EB8281E090E02C01421A530A8C
:1050D000C9019195819591099C01220F331F3A8353
:1050E0002983170133E0230E311CEE24E394F12CC5
:1050F000802F81708D8302700E83C7010197EF812D
:10510000F8858E179F070CF078C057FC0CC0AF8154
:10511000B8851197B887AF83E981FA813296FA830F
:10512000E9834E0E5F1EC701880F991F0196480E36
:10513000591EFD81FF2359F1D501ED91FC912F817D
:105140003885220F331F2F5F3F4F8B819C81280FA3
:10515000391F0484F585E02D8601A401AF81B8854F
:105160004A1B5B0BB701660D771DC5011995D5016B
:10517000ED91FC910484F585E02D9101A4014E1977
:105180005F096F817885660D771DC5011995BE8110
:10519000BB2361F1D501ED91FC912F813885220F60
:1051A000331F2F5F3F4F8B819C81280F391F048451
:1051B000F585E02D8601A401AF81B8854A1B5B0B04
:1051C000B3016E197F09C5011995D501ED91FC91C7
:1051D0000484F585E02D9101A4014E195F09B30106
:1051E0008F819885681B790BC50119959FEFE91A86
:1051F000F90AA2E02A0E311C80CF28960FB6F89447
:10520000DEBF0FBECDBFDF91CF911F910F91FF90F9
:10521000EF90DF90CF90BF90AF909F908F907F9056
:105220006F905F904F903F902F9008956F927F9274
:105230008F929F92AF92BF92CF92DF92EF92FF92A6
:105240000F931F93CF93DF93EC014B013A01590168
:105250006801E881F9810680F781E02D1995E881E0
:10526000F9819501220F331F2F5F3F4FA3014A1988
:105270005B090484F585E02DB401CE011995E12C7C
:10528000F12C03E09501A301B401CE010E94422854
:10529000E881F9810288F389E02DCE01DF91CF9179
:1052A0001F910F91FF90EF90DF90CF90BF90AF9044
:1052B0009F908F907F906F9019942F923F924F9272
:1052C0005F926F927F928F929F92AF92BF92CF9296
:1052D000DF92EF92FF920F931F93CF93DF93CDB79F
:1052E000DEB76C970FB6F894DEBF0FBECDBF9C8FB4
:1052F0008B8F5B011A011F830E833701C982DC018A
:1053000058964D915C9159974115510509F0E5C0AA
:1053100018968D919C911997681779070CF0CAC15E
:105320001A968D919C911B97281639060CF0C2C1D4
:105330008C2C912CFB0136E0C39EE00DF11D112455
:10534000FB87EA871E161F060CF0B4C1C40133E0C8
:10535000880F991F3A95E1F79D878C87820D931DE1
:10536000181619060CF0A6C157968C91811103C02E
:10537000203B08F02F5FAB8DBC8DED91FC91119718
:105380000680F781E02DCD012A8F19952A8DB5E091
:105390002B9F90011124F5013596FF87EE8725019B
:1053A000BB82AA82A9014A195B09598B488BC101AA
:1053B00008969B8B8A8BE889F989E40DF51DE65DDB
:1053C000FC4F949198873D822C826101A885A0FFB3
:1053D00013C0AB8DBC8DED91FC91B981B13031F42E
:1053E0000084F185E02D2E813F8116C00284F38573
:1053F000E02DEE80FF801AC0EE81FF816E167F06E1
:10540000F1F0AB8DBC8DED91FC91B981B13051F4CF
:105410000084F185E02D9301A601B2018B8D9C8D56
:1054200019950DC00284F385E02D73018401940168
:105430004C815D816A817B818B8D9C8D1995E8857E
:10544000E695E8872C813D81280D391D3D832C830D
:105450003FEFC31AD30A4A895B89C416D50609F0FF
:10546000B5CF8A819B81880D991D9B838A839FEF8D
:10547000491A590AAE85BF854A165B0609F09BCFCB
:10548000EE81FF816E167F0609F4F2C0EB8DFC8D74
:10549000A081B181F981F13079F4B5016B5F7F4F63
:1054A0001C96ED91FC911D97830128E030E0A1014D
:1054B0008B8D9C8D1995DCC06A857B85681979096F
:1054C0001A96ED91FC911B9773010C851D85940133
:1054D000A1018B8D9C8D1995CBC0FA0134969491C6
:1054E000329765917491291BCB01B7E02B9F800DFA
:1054F000911D1124FA01259134913B8B2A8BFC01DB
:10550000459154915B834A83FC013296C490319655
:1055100054915C87329614913196D490898182306F
:1055200058F0612E012E000C7708AD2D0D2C000CCB
:10553000BB0BB987A88704C019861886612C712C0B
:10554000AB8DBC8DED91FC9111970680F781E02D1C
:10555000CD011995B9818B2E912C689CC001699C55
:10556000900D789C900D1124FC01EA0DFB1DF98B28
:10557000E88B1C82712C612CE12F110FFF0B950120
:105580002E0F3F1F3B872A87AC0CB11CA5014E0F85
:105590005F1F5F8B4E8BC1018D0D911DD7FC9A95BE
:1055A000998F888F4C85641608F062C0862D90E034
:1055B00048855985480F591F489D9001499D300DD8
:1055C000589D300D1124D901A20DB31DBF87AE87A0
:1055D000AA84BB8448885988DC80BA85DB1AE88DA8
:1055E000F98DE80FF91FFD8BEC8B8D2D8A0D2E891F
:1055F0003F89A216B306B9F1877061F48A819B8155
:105600000196EA89FB89AA81BB81EA0FFB1F74908E
:105610009B838A8377FE20C0AB8DBC8DED91FC917E
:10562000B981B13061F40084F185E02D2E813F8194
:105630004C895D89B5018B8D9C8D19950DC00284B7
:10564000F385E02DEE80FF80840194014E855F8517
:10565000B2018B8D9C8D1995770C480C591CEFEF7E
:10566000AE1ABE0AC2CF3C813C0D3C8363949ACFF4
:10567000AB8DBC8DED91FC9111970288F389E02DE3
:10568000CD016C960FB6F894DEBF0FBECDBFDF9193
:10569000CF911F910F91FF90EF90DF90CF90BF902F
:1056A000AF909F908F907F906F905F904F903F90C2
:1056B0002F9019946C960FB6F894DEBF0FBECDBF35
:1056C000DF91CF911F910F91FF90EF90DF90CF90DE
:1056D000BF90AF909F908F907F906F905F904F9012
:1056E0003F902F900895AF92BF92CF92EF92FF928A
:1056F0000F931F93CF93DF93EC01262F888D998D05
:10570000009709F040C06A3059F41D861C862C8928
:105710008E859F8538E0239F800D911D112441C007
:105720006D3009F4AAC08E898823C1F03C898C852C
:105730009D8546E0349F800D911D11244885598533
:10574000481759075CF41D861C868E859F8548E0A6
:10575000349F800D911D11249F878E87EA88FB88D6
:10576000088919894E855F856C857D85CC88CE0139
:105770000E945D292C898C859D8536E0239F800DB4
:10578000911D112442C06A3079F41D861C862C8933
:10579000FC013696E4918E859F852E9F800D911D8C
:1057A00011249F878E8769C06D3009F466C0FC01A3
:1057B00034963491631708F460C03196E491E6178B
:1057C00008F45BC0FC013296A590B490462F50E0DF
:1057D000431B510937E0349FB001359F700D1124F0
:1057E000A60EB71EF501329634913196E49133231B
:1057F00011F0E1110DC0F5013496E4912C898C85EE
:105800009D85E29F800D911D11249D878C8735C059
:10581000F501359644915E89552311F16C89E32F8A
:10582000F0E0E40FF11D47FDFA956E9FD0016F9FE8
:10583000B00D11244C855D854A0F5B1FE885F98505
:10584000E417F5076CF41D861C86FC013696E4917E
:105850008E859F856E9F800D911D11249F878E8759
:10586000EA88FB88088919894E855F856C857D8566
:10587000CC88CE010E945D29BECF81E090E0DF910F
:10588000CF911F910F91FF90EF90CF90BF90AF906D
:105890000895FC01758764875787468708956111CD
:1058A00001C061E0FC01648B0895FC01738B628B85
:1058B000718B608B0895DC019C96ED91FC919D9716
:1058C0009081D1968C91892B80830895EF92FF92DD
:1058D0000F931F93DC01ED91FC910284F385E02D81
:1058E0007801890121E030E019951F910F91FF9017
:1058F000EF900895EF92FF920F931F93DC01ED91CB
:10590000FC910284F385E02D780101E010E0199507
:105910001F910F91FF90EF9008950F931F93CF93D6
:10592000DF9300D000D0CDB7DEB78C01DC01ED9164
:10593000FC910680F781E02D2D833E834B835C83B1
:1059400069837A831995D801ED91FC910084F185E2
:10595000E02D2D813E814B815C8169817A81C80176
:105960001995D801ED91FC910288F389E02DC801C9
:1059700026960FB6F894DEBF0FBECDBFDF91CF9154
:105980001F910F911994EF92FF920F931F93CF9352
:10599000DF9300D000D0CDB7DEB77C01DC01ED9104
:1059A000FC910680F781E02D2D833E834B835C8341
:1059B00069837A831995D701ED91FC910484F5856B
:1059C000E02D2D813E814B815C8169817A81C70107
:1059D0001995D701ED91FC910288F389E02DC7015B
:1059E00026960FB6F894DEBF0FBECDBFDF91CF91E4
:1059F0001F910F91FF90EF901994EF92FF920F93E8
:105A00001F93CF93DF9300D000D0CDB7DEB77C01DA
:105A1000DC01ED91FC910680F781E02D2D833E8322
:105A20004B835C8369837A831995D701ED91FC914F
:105A30000684F785E02D2D813E814B815C81698153
:105A40007A81C7011995D701ED91FC910288F389FC
:105A5000E02DC70126960FB6F894DEBF0FBECDBF6E
:105A6000DF91CF911F910F91FF90EF901994CF92FA
:105A7000DF92EF92FF920F931F93CF93DF9300D0AB
:105A800000D0CDB7DEB76C01DC01ED91FC91068052
:105A9000F781E02D2D833E834B835C8369837A837A
:105AA0001995D601ED91FC910284F385E02D2D81AD
:105AB0003E814B815C8169817A81C6011995D6014D
:105AC000ED91FC910288F389E02DC60126960FB670
:105AD000F894DEBF0FBECDBFDF91CF911F910F9124
